:020000040800F2
:1000000000800120151B00081D1A0008231A000893
:10001000291A00082F1A0008351A000800000000ED
:100020000000000000000000000000003B1A000873
:10003000491A000800000000571A0008651A000855
:10004000651B0008651B0008651B0008651B000890
:10005000651B0008651B0008711A00087F1A00085C
:100060008D1A0008651B0008651B0008651B000849
:10007000651B0008651B0008651B0008651B000860
:10008000651B0008651B0008651B000800000000D8
:100090000000000000000000000000009B1A0008A3
:1000A000651B0008651B0008651B0008651B000830
:1000B000C51A0008651B0008651B0008651B0008C1
:1000C000651B0008651B0008651B0008651B000810
:1000D000651B0008651B0008651B00080000000088
:1000E000D91A0008651B0008651B00080000000005
:1000F000000000000000000000000000651B000878
:1001000000000000651B0008651B0008651B000857
:1001100000000000000000000000000000000000DF
:10012000651B0008651B0008651B0008651B0008AF
:10013000651B000800000000000000000000000037
:10014000000000000000000000000000651B000827
:10015000651B0008651B0008651B0008651B00087F
:10016000651B0008651B000800000000000000007F
:10017000000000000000000000000000000000007F
:1001800000000000651B00080000000000000000E7
:04019000651B0008E3
:1001940010B5054C237833B9044B13B10448AFF3BD
:1001A40000800123237010BD0C010020000000001A
:1001B400DC40000808B5034B1BB103490348AFF307
:1001C400008008BD0000000010010020DC40000891
:1001D40053B94AB9002908BF00281CBF4FF0FF31AA
:1001E4004FF0FF3000F06EB9ADF1080C6DE904CEAC
:1001F40000F006F8DDF804E0DDE9022304B07047FE
:100204002DE9F047089D04468C46002B40F083807E
:100214008A42174647D9B2FA82F242B1C2F12000AB
:1002240024FA00F09140974040EA010C94404FEAD0
:100234001748230CBCFBF8F61FFA87FE08FB16C10F
:1002440043EA014306FB0EF1994209D9FB1806F172
:10025400FF3080F01981994240F21681023E3B44FE
:100264005B1AA4B2B3FBF8F008FB103344EA03446E
:1002740000FB0EFEA64509D93C1900F1FF3380F0BE
:100284000581A64540F2028102383C4440EA06401A
:10029400A4EB0E0400261DB1D4400023C5E900439D
:1002A4003146BDE8F08702B9FFDEB2FA82F2002AD5
:1002B40050D1CB1B4FEA174E1FFA87F80126B3FB28
:1002C400FEFC210C0EFB1C3341EA034108FB0CF33A
:1002D4008B4207D979180CF1FF3002D28B4200F21D
:1002E400E9808446C91AA3B2B1FBFEF00EFB1011DB
:1002F40043EA014408FB00F8A04507D93C1900F182
:10030400FF3302D2A04500F2D9801846A4EB0804BA
:1003140040EA0C40BFE78B4209D9002D00F0B180C0
:100324000026C5E9000130463146BDE8F087B3FA3E
:1003340083F6002E4AD18B4202D3824200F2B88067
:10034400841A61EB030101208C46002DA8D0C5E975
:10035400004CA5E7C2F1200320FA03F6974001FA06
:1003640002F04FEA174ED9403043030CB1FBFEF6BE
:100374001FFA87F80EFB161143EA014306FB08F146
:10038400994204FA02F409D9FB1806F1FF3C80F003
:100394008D80994240F28A80023E3B445B1A81B2CE
:1003A400B3FBFEF00EFB103341EA034100FB08F3FC
:1003B4008B4207D9791800F1FF3C73D28B4271D973
:1003C40002383944CB1A40EA064678E7C6F1200CD5
:1003D40003FA06F422FA0CF31C4320FA0CF701FA90
:1003E40006F34FEA144E21FA0CF11F433B0CB1FB08
:1003F400FEF91FFA84F80EFB191143EA014109FBC7
:1004040008FA8A4502FA06F200FA06F308D96118D6
:1004140009F1FF3048D28A4546D9A9F1020921449D
:10042400A1EB0A01BFB2B1FBFEF00EFB101147EACB
:10043400014700FB08F8B84507D9E71900F1FF3177
:100444002ED2B8452CD90238274440EA0940A7EBFC
:100454000807A0FB02894F45C64649461AD317D060
:100464005DB1B3EB0E0267EB010707FA0CFCF24037
:100474004CEA0202F740C5E9002700263146BDE8F0
:10048400F0872E4628460BE70646E9E61846FDE6C1
:100494004345E5D2B8EB020E69EB04010138DFE70E
:1004A4000846D2E760468DE78146B9E7664675E7B8
:1004B40030464AE7ACF1020C394413E702383C44B5
:1004C40024E700BF704700BF80B582B000AF01F0E1
:1004D40049FB00F0BFF800F0D5FA00F07FFA00F015
:1004E400A7FA00F017F900F0FFF900F0A3F94D485E
:1004F40002F024FB00214B4802F022FD042149486C
:1005040002F01EFD484802F073FB0021464802F049
:1005140017FD0421444802F0CDFB444802F00EFBD1
:100524000421404802F00CFD08213E4802F008FD79
:100534000C213C4802F004FD0FE001224FF400615D
:100544003B4801F03BFE4FF4FA7001F07DFB0022C2
:100554004FF40061364801F031FE364B1B68002B26
:10056400EBD1354B1B68002B26D001224FF40071D0
:10057400324801F023FE01224FF400612F4801F0BC
:100584001DFE294B1B685B6A7B6000BF264B1B6802
:100594005A6A7B680A339A42F8D900224FF40071F0
:1005A400264801F00BFE00224FF40061234801F0BD
:1005B40005FE3C2001F048FB214B1B7803F00303AC
:1005C400002BCAD01E4B00221A701E4B1B684FF41E
:1005D4007A71184601F03AF804E0164B1B68002BB8
:1005E40000D0A9E7184B1B68002BF6D0174B1B68EB
:1005F4004FF47A7202FB03F3184601F025FB114B0A
:100604001B684FF47A71184600F0FCFF04E0094BB4
:100614001B68002B00D08FE70D4B1B68002BF6D016
:100624009BE700BFB4010020400200206C010020C1
:1006340000000240480100204C0100200008024054
:100644005801002040010020540100203C010020FA
:100654005001002080B594B000AF07F12003302290
:100664000021184603F030FD07F10C0300221A6044
:100674005A609A60DA601A610023BB60234B1B6CDA
:10068400224A43F080531364204B1B6C03F08053C5
:10069400BB60BB6800237B601D4B1B6823F4404395
:1006A4001B4A43F400431360194B1B6803F4404393
:1006B4007B607B6802233B620123FB6210233B6364
:1006C4000023BB6307F12003184601F0C3FD034672
:1006D400002B01D001F01AF80F23FB6000233B61CB
:1006E40000237B610023BB610023FB6107F10C0342
:1006F4000021184602F026F80346002B01D001F031
:1007040005F800BF5037BD4680BD00BF0038024029
:100714000070004080B592B000AF07F140030022A2
:100724001A605A6007F1240300221A605A609A6022
:10073400DA601A615A619A613B1D20220021184631
:1007440003F0C2FC394B3A4A1A60384B00225A6013
:10075400364B00229A60354B4FF6FF72DA60334B0A
:1007640000221A61314B00225A61304B00229A61F7
:100774002E4802F095FB0346002B01D000F0C6FF83
:1007840000233B6400237B6407F140031946274898
:1007940003F0B0F80346002B01D000F0B7FF60234C
:1007A4007B620023BB620023FB6200233B630023C4
:1007B4007B630023BB630023FB6307F12403002254
:1007C40019461A4802F074FD0346002B01D000F0CC
:1007D4009DFF07F1240304221946144802F068FD22
:1007E4000346002B01D000F091FF00237B6000231F
:1007F400BB600023FB6000233B6100237B614FF45B
:100804000053BB6100233B623B1D1946074803F0BC
:10081400DFF80346002B01D000F078FF034800F016
:10082400F5FF00BF4837BD4680BD00BFB4010020BE
:100834000000014080B58AB000AF07F12003002218
:100844001A605A603B1D00221A605A609A60DA608E
:100854001A615A619A61224B4FF080421A60204B10
:100864000F225A601E4B00229A601D4B1D4ADA600B
:100874001B4B00221A611A4B80229A61184802F01D
:100884000FFB0346002B01D000F040FF00233B6226
:1008940000237B6207F120031946114803F02AF86C
:1008A4000346002B01D000F031FF60237B604FF43E
:1008B400FA73BB600023FB6000237B613B1D0022B5
:1008C4001946074802F0F4FC0346002B01D000F05F
:1008D4001DFF034800F09AFF00BF2837BD4680BDC6
:1008E400400200209F86010080B58AB000AF07F166
:1008F400200300221A605A603B1D00221A605A60CD
:100904009A60DA601A615A619A61324B324A1A600B
:10091400304B00225A602F4B00229A602D4B4FF629
:10092400FF72DA602B4B00221A612A4B80229A61F3
:10093400284802F0B5FA0346002B01D000F0E6FE89
:1009440000233B6200237B6207F120031946214800
:1009540002F0D0FF0346002B01D000F0D7FE602345
:100964007B600023BB600023FB6000237B613B1D95
:1009740000221946174802F09BFC0346002B01D0C5
:1009840000F0C4FE3B1D04221946124802F090FCFC
:100994000346002B01D000F0B9FE3B1D0822194686
:1009A4000C4802F085FC0346002B01D000F0AEFE9B
:1009B4003B1D0C221946074802F07AFC0346002B23
:1009C40001D000F0A3FE034800F020FF00BF283749
:1009D400BD4680BD6C0100200004004080B500AF1E
:1009E400114B124A1A60104B4FF4E1325A600E4B0D
:1009F40000229A600C4B0022DA600B4B00221A6131
:100A0400094B0C225A61084B00229A61064B0022C2
:100A1400DA61054803F042F80346002B01D000F0E8
:100A240075FE00BF80BD00BF880200200044004066
:100A340080B500AF114B124A1A60104B4FF4165296
:100A44005A600E4B00229A600C4B0022DA600B4B6A
:100A540000221A61094B0C225A61084B00229A6148
:100A6400064B0022DA61054803F018F80346002B10
:100A740001D000F04BFE00BF80BD00BFFC01002090
:100A84000014014080B58AB000AF07F114030022BE
:100A94001A605A609A60DA601A6100233B61664BFF
:100AA4001B6B654A43F004031363634B1B6B03F036
:100AB40004033B613B690023FB605F4B1B6B5E4A95
:100AC40043F0800313635C4B1B6B03F08003FB60F8
:100AD400FB680023BB60584B1B6B574A43F0010370
:100AE4001363554B1B6B03F00103BB60BB6800230E
:100AF4007B60514B1B6B504A43F0020313634E4B14
:100B04001B6B03F002037B607B6800224FF472616D
:100B14004A4801F053FB00224FF42061484801F099
:100B24004DFB4FF400537B61464BBB610023FB61DB
:100B340007F114031946424801F0BCF903237B6111
:100B4400414BBB610023FB6107F1140319463C4888
:100B540001F0B0F940F204437B613C4BBB610023DC
:100B6400FB6107F114031946354801F0A3F94FF46A
:100B740072637B610123BB610023FB6100233B6241
:100B840007F1140319462D4801F094F94FF420633A
:100B94007B610123BB610023FB6100233B6207F1FE
:100BA40014031946264801F085F94FF4F0737B616C
:100BB400254BBB610023FB6107F11403194624484C
:100BC40001F078F94FF400737B61204BBB61002383
:100BD400FB6107F1140319461D4801F06BF900226B
:100BE4000021062001F02FF9062001F048F9002227
:100BF4000021072001F027F9072001F040F9002225
:100C04000021082001F01FF9082001F038F9002222
:100C14000021172001F017F9172001F030F9002204
:100C24000021282001F00FF9282001F028F900BF45
:100C34002837BD4680BD00BF003802400000024096
:100C440000080240000021100000111000003110C3
:100C540000040240B0B5ADF5067D00AF0246BB1DF1
:100C64001A80BB1D1B88202B26D1B44B00221A707E
:100C7400B34B00221A60B34B00221A60B24B03221A
:100C84001A70B24B07F500740FCB07C42370B04B36
:100C940007F5F6741D460FCD0FC42B68237007F5B6
:100CA400F67207F5007011230D2100F04FFCA94BDB
:100CB40004221A7000F01CBCBB1D1B88402B40F0A2
:100CC4001182A44B1B7803F00203002B00F00A826C
:100CD4009D4B1B78032B00F2038201A252F823F0F0
:100CE400390D0008030E000859100008F50C00081F
:100CF400994B01221A60994B1A78934B1A70984AAF
:100D040007F5F07307CA83E80700964B07F5E87404
:100D14000FCB07C4238002341B0C237007F5E87241
:100D240007F5F0700F230C2100F010FC894B022210
:100D34001A70D6E1884B1B68002B1DD0864B00220D
:100D44001A60894B07F5D0740FCB07C42380023493
:100D54001B0C23707D4B07F5C8740FCB07C423709D
:100D640007F5C87207F5D0700D230F2100F0EEFBD4
:100D7400784B04221A70B4E1764B01221A707B4B33
:100D84001B78002B1DD1784B07F5C0740FCB07C41B
:100D9400238002341B0C2370754B07F5B8740FCBFA
:100DA40007C4237007F5B87207F5C0700D230F212F
:100DB40000F0CCFB4FF47A7144F2682000F022FC7E
:100DC4008FE1694B07F5B0740FCB07C4238002345D
:100DD4001B0C2370674B07F5A8740FCB07C4237053
:100DE40007F5A87207F5B0700D230F2100F0AEFBD4
:100DF4004FF47A7144F2682000F028FC71E1564BFC
:100E04001B68002B1AD0544B00221A605A4B07F56A
:100E1400A0740FCB07C423804C4B07F598740FCBF9
:100E240007C4237007F5987207F5A0700D230E21EF
:100E340000F08CFB474B04221A7052E13F4B1B78A5
:100E4400002B24D13E4B1B684C4A52F823304C4AA9
:100E540013603A4B01221A703E4B04221A70494B1C
:100E640007F590740FCB07C4238007F58673464AB1
:100E74001C4615460FCD0FC42B68237007F58672E8
:100E840007F5907011230E2100F060FBDEE02B4B80
:100E94001B78012B26D12A4B1B68384A52F8233081
:100EA4003A4A1360254B02221A702A4B04221A7004
:100EB40007F1FC03364A1C4613460FCB07C42380B4
:100EC40007F1E803334A1C4615460FCD0FC42B68BF
:100ED400237007F1E80207F1FC0011230E2100F052
:100EE40035FBB3E0154B1B78022B5DD1144B1B680B
:100EF400294A52F82330294A1360104B03221A70EE
:100F0400144B04221A7007F1D803254A1C461346D1
:100F14000FCB07C4238007F1C403224A1C4615469D
:100F24000FCD0FC42B68237007F1C40207F1D8005A
:100F340011230E2100F00AFB88E000BF2E010020DF
:100F4400300100204C01002005000020F44000087E
:100F54000441000804000020280100202C01002086
:100F64001841000824410008344100082D010020E4
:100F74004441000854410008644100082C0000204A
:100F84003401002074410008844100083801002025
:100F940098410008A84100083C0000203C010020C2
:100FA400BC410008CC410008B04B1B78032B26D170
:100FB400AF4B1B68AF4A52F82330AF4A1360AB4BB8
:100FC40004221A70AD4B04221A7007F1B403AC4A20
:100FD4001C4613460FCB07C4238007F1A003A94A7C
:100FE4001C4615460FCD0FC42B68237007F1A002D1
:100FF40007F1B40011230E2100F0A8FA26E09B4B60
:101004001B78042B22D19A4B1B689A4A52F823303E
:101014009D4A1360994B01221A7007F190039B4A71
:101024001C4613460FCB07C4238002341B0C2370C9
:1010340007F18403964A07CA83E8070007F184028C
:1010440007F190000C230F2100F080FA884B002256
:101054001A6046E08F4B1B68002B0FD08E4B1B6829
:10106400002B0BD08D4B1B68002B07D0824B1B68C9
:10107400002B03D0844B1B68002B17D107F1780396
:10108400874A07CA83E8070007F16C03854A07CA41
:1010940083E8070007F16C0207F178000C230C21A8
:1010A40000F054FA754B01221A701AE07E4B0122AB
:1010B4001A607E4A07F5E27307CA83E807007C4B8F
:1010C40007F5D8741D460FCD0FC42B68237007F5A0
:1010D400D87207F5E27011230C2100F037FA00E012
:1010E40000BF05E2BB1D1B88802B40F03481634B9D
:1010F4001B7803F00403002B00F02D8107F15C033F
:101104006C4A1C4613460FCB84E80F006A4B1B78CD
:10111400032B00F21E8101A252F823F07311000880
:10112400AF1100085713000831110008634B1B78F6
:101134005A1C634B83FB0231D317C91A0B465B005D
:101144000B44D11ACAB25D4B1A705C4B1B781A4619
:1011540013469B0013445B4A981807F15C02102362
:10116400052100F0F3F9454B06221A70F2E0564BC4
:101174001B780133002B03F00103B8BF5B42DAB2E2
:10118400514B1A70504B1B781A4613469B0013445C
:101194005B004E4A981807F15C0210230A2100F004
:1011A400D5F9364B06221A70D4E0314B1B68013353
:1011B4005A4203F0030302F0030258BF53422C4A7D
:1011C40013602A4B1B78002B17D107F14C03404ABC
:1011D4001C4613460FCB84E80F00254B1A681346B0
:1011E4009B0013445B0013443A4A1A4407F14C0031
:1011F4000B23102100F0AAF9A7E01C4B1B78012B4C
:1012040017D107F13C03344A1C4613460FCB84E83C
:101214000F00174B1A6813469B0013445B001344DA
:101224002C4A1A4407F13C000B23102100F08EF9DC
:101234008BE00E4B1B78022B54D107F12C03274A69
:101244001C4613460FCB84E80F00094B1A6813465B
:101254005B0013449B001344214A1A4407F12C00F9
:101264000D23102100F072F96FE000BF2E01002061
:10127400300100204C000020400100200400002028
:10128400E0410008F0410008440100200442000845
:101294001442000834010020380100203C010020E1
:1012A400204200082C4200084C010020384200086B
:1012B4004442000858420008050000202C01002088
:1012C40056555555080000202D0100201800002017
:1012D400684200085C000020784200088842000848
:1012E40088000020854B1B78032B15D107F11C03C4
:1012F400834A1C4613460FCB84E80F00814B1A68BF
:1013040013461B019B1A804A1A4407F11C000F2341
:10131400102100F01BF918E0784B1B78042B14D132
:1013240007F10C03794A1C4613460FCB84E80F00DF
:10133400744B1A6813461B019B1A734A1A4407F12B
:101344000C000F23102100F001F9714B06221A70D2
:1013540000E000BFCCE0BB1D1B88012B0BD16D4B03
:1013640001221A604FF47A7144F6206000F04AF9C1
:1013740000F090F9BCE0BB1D1B88022B0BD1664B1F
:1013840001221A604FF47A7144F6206000F05EF98D
:1013940000F080F9ACE0BB1D1B88B3F5007F3FD1A2
:1013A4005E4B1B68002B0ED05C4B00221A605C4B1A
:1013B4001B685B6A5B4A136000224FF400715A4851
:1013C40000F0FCFE94E0554B01221A60544B1B685C
:1013D4005B6A564A1360534B1B68544A12681146A1
:1013E400184600F067F9C7F81002D7F8100200F0A9
:1013F4007BF901464E4B1A6813465B0013449B006D
:10140400994275DC4B4B1B7843F00103DAB2494B2C
:101414001A7001224FF40071434800F0CFFE67E0D8
:10142400BB1D1B88B3F5806F3FD1434B1B68002B5A
:101434000ED0414B00221A60394B1B685B6A3F4A4D
:10144400136000224FF48071374800F0B7FE4FE07C
:10145400394B01221A60324B1B685B6A384A1360AD
:10146400364B1B68364A12681146184600F022F9BA
:10147400C7F81402D7F8140200F036F90146314BCC
:101484001A6813465B0013449B00994230DC294BD5
:101494001B7843F00203DAB2264B1A7001224FF490
:1014A4008071214800F08AFE22E0BB1D1B88042BBA
:1014B40013D1254B1B68002B05D1234B01221A6045
:1014C40000F0E8F814E0204B00221A604FF47A711F
:1014D40044F2682000F096F80AE0BB1D1B88B3F5BF
:1014E400807F05D14FF480610F4800F080FEFFE754
:1014F40000BF07F50677BD46B0BD00BF2E01002032
:101504008842000830010020BC00002098420008F6
:10151400040000205401002050010020F8000020A5
:10152400400200205C010020000002406001002015
:101534003801002058010020FC0000206401002034
:10154400680100203C0100204801002080B584B0DF
:1015540000AFF860B9607A603B604FF47A7301229F
:101564002349244802F0E7FA4FF47A73012222490E
:10157400204802F0E0FAFB68002B18D0BB68002B6F
:1015840015D04FF47A73012219491A4802F0D3FA9C
:101594004FF47A7301221949164802F0CCFABB6859
:1015A4009AB24FF47A73F968124802F0C4FA7B686D
:1015B400002B18D03B68002B15D04FF47A7301220E
:1015C4000B490C4802F0B7FA4FF47A7301220C4924
:1015D400084802F0B0FA3B689AB24FF47A7379681B
:1015E400044802F0A8FA00BF1037BD4680BD00BF12
:1015F40000000020FC010020030000200200002065
:101604000100002080B485B000AF786039600D4BD4
:1016140000221A600023FB6009E00B4AFB68536355
:10162400094B00229A63FB6803F57A73FB60FA683E
:101634007B689A42F1DB00BF00BF1437BD465DF8FA
:10164400047B7047540100200000014080B485B041
:1016540000AF786039600D4B00221A600023FB60F4
:1016640009E00B4B00225A63094AFB689363FA684A
:101674003B681344FB60FA687B689A42F1DB00BF65
:1016840000BF1437BD465DF8047B7047500100204D
:101694000000014080B400AF054B00225A63044BA4
:1016A40000229A6300BFBD465DF8047B704700BF0B
:1016B4000000014080B483B000AF786039607A687C
:1016C4003B689A4203D23A687B68D31A05E03A68C9
:1016D4007B68D31A03F5C333A03318460C37BD46D1
:1016E4005DF8047B7047000080B483B000AF78607D
:1016F4007B689B08044AA2FB03239B0818460C370B
:10170400BD465DF8047B704715F9AC1B80B400AF8F
:1017140072B600BFFEE7000080B582B000AF0023C0
:101724007B60104B5B6C0F4A43F4804353640D4B56
:101734005B6C03F480437B607B6800233B60094B54
:101744001B6C084A43F080531364064B1B6C03F074
:1017540080533B603B68072000F06AFB00BF0837FA
:10176400BD4680BD0038024080B586B000AF7860C9
:101774007B681B68224A93420ED100237B61214B74
:101784005B6C204A43F0010353641E4B5B6C03F013
:1017940001037B617B692EE07B681B68B3F1804F9A
:1017A40016D100233B61174B1B6C164A43F001030F
:1017B4001364144B1B6C03F001033B613B6900226F
:1017C40000211C2000F03FFB1C2000F058FB12E01D
:1017D4007B681B680C4A93420DD10023FB60094BC4
:1017E4001B6C084A43F002031364064B1B6C03F0A2
:1017F4000203FB60FB6800BF1837BD4680BD00BF15
:1018040000000140003802400004004080B58AB066
:1018140000AF786007F1140300221A605A609A60DE
:10182400DA601A617B681B68374A93421FD1002330
:101834003B61364B1B6B354A43F002031363334B56
:101844001B6B03F002033B613B694FF4C0437B61B4
:101854000223BB610023FB6100233B6201237B6203
:1018640007F1140319462A4800F024FB47E07B687B
:101874001B68B3F1804F1FD10023FB60234B1B6B0C
:10188400224A43F001031363204B1B6B03F0010353
:10189400FB60FB684FF400437B610223BB610023C0
:1018A400FB6100233B6201237B6207F114031946A9
:1018B400184800F0FFFA22E07B681B68164A93423E
:1018C4001DD10023BB60114B1B6B104A43F0010375
:1018D40013630E4B1B6B03F00103BB60BB68402317
:1018E4007B610223BB610023FB6100233B62022373
:1018F4007B6207F114031946064800F0DBFA00BFC7
:101904002837BD4680BD00BF0000014000380240BA
:1019140000040240000002400004004080B58CB086
:1019240000AF786007F11C0300221A605A609A60C5
:10193400DA601A617B681B68324A93422CD1002317
:10194400BB61314B1B6C304A43F4003313642E4BA0
:101954001B6C03F40033BB61BB6900237B612A4B1E
:101964001B6B294A43F001031363274B1B6B03F0E2
:1019740001037B617B690C23FB6102233B6200232F
:101984007B620023BB620723FB6207F11C03194639
:101994001E4800F08FFA30E07B681B681C4A9342B3
:1019A4002BD100233B61184B5B6C174A43F0200397
:1019B4005364154B5B6C03F020033B613B690023CC
:1019C400FB60114B1B6B104A43F0040313630E4B73
:1019D4001B6B03F00403FB60FB68C023FB61022361
:1019E4003B6200237B620323BB620823FB6207F193
:1019F4001C031946074800F05DFA00BF3037BD46A6
:101A040080BD00BF00440040003802400000024096
:101A1400001401400008024080B400AFFEE780B427
:101A240000AFFEE780B400AFFEE780B400AFFEE78E
:101A340080B400AFFEE780B400AF00BFBD465DF8E0
:101A4400047B704780B400AF00BFBD465DF8047BE3
:101A5400704780B400AF00BFBD465DF8047B70479B
:101A640080B500AF00F0D0F800BF80BD80B500AFF6
:101A7400012000F0D7FB00BF80BD80B500AF02207D
:101A840000F0D0FB00BF80BD80B500AF042000F0A3
:101A9400C9FB00BF80BD80B500AF202000F0C2FBB1
:101AA400402000F0BFFB802000F0BCFB4FF48070AE
:101AB40000F0B8FB4FF4007000F0B4FB00BF80BD31
:101AC40080B500AF024801F0EBFA00BF80BD00BF53
:101AD4004002002080B500AF4FF4806000F0A2FB0C
:101AE4004FF4005000F09EFB00BF80BD80B400AFF7
:101AF400064BD3F88830054A43F47003C2F88830A3
:101B040000BFBD465DF8047B704700BF00ED00E0F8
:101B1400DFF834D00D480E490E4A002302E0D458B1
:101B2400C4500433C4188C42F9D30B4A0B4C002321
:101B340001E013600432A242FBD3FFF7D7FF02F0A7
:101B44009FFAFEF7C1FC70470080012000000020CE
:101B54000C010020D04200080C010020D00200201B
:101B6400FEE7000080B500AF0E4B1B680D4A43F43E
:101B7400007313600B4B1B680A4A43F480631360C1
:101B8400084B1B68074A43F480731360032000F07A
:101B94004FF9002000F008F8FFF7BEFD00231846B7
:101BA40080BD00BF003C024080B582B000AF7860C9
:101BB400124B1A68124B1B7819464FF47A73B3FB15
:101BC400F1F3B2FBF3F3184600F067F90346002B78
:101BD40001D001230EE07B680F2B0AD8002279681C
:101BE4004FF0FF3000F02FF9064A7B6813600023A2
:101BF40000E0012318460837BD4680BD00010020DF
:101C0400080100200401002080B400AF064B1B78BB
:101C14001A46064B1B681344044A136000BFBD46B2
:101C24005DF8047B704700BF08010020CC0200204F
:101C340080B400AF034B1B681846BD465DF8047BB7
:101C4400704700BFCC02002080B584B000AF78603C
:101C5400FFF7EEFFB8607B68FB60FB68B3F1FF3F02
:101C640005D00A4B1B781A46FB681344FB6000BF7F
:101C7400FFF7DEFF0246BB68D31AFA689A42F7D828
:101C840000BF00BF1037BD4680BD00BF0801002063
:101C940080B485B000AF78607B6803F00703FB6015
:101CA4000C4BDB68BB60BA684FF6FF031340BB60A4
:101CB400FB681A02BB68134343F0BF6343F4003369
:101CC400BB60044ABB68D36000BF1437BD465DF8EF
:101CD400047B704700ED00E080B400AF044BDB6888
:101CE4001B0A03F007031846BD465DF8047B7047E2
:101CF40000ED00E080B483B000AF0346FB7197F9B8
:101D04000730002B0BDBFB7903F01F02074997F91F
:101D140007305B09012000FA02F241F8232000BFDA
:101D24000C37BD465DF8047B704700BF00E100E05E
:101D340080B483B000AF03463960FB7197F9073074
:101D4400002B0ADB3B68DAB20C4997F90730120121
:101D5400D2B20B4483F800230AE03B68DAB20849A4
:101D6400FB7903F00F03043B1201D2B20B441A7641
:101D740000BF0C37BD465DF8047B704700E100E00E
:101D840000ED00E080B489B000AFF860B9607A601B
:101D9400FB6803F00703FB61FB69C3F10703042B32
:101DA40028BF0423BB61FB690433062B02D9FB69FA
:101DB400033B00E000237B614FF0FF32BB6902FA72
:101DC40003F3DA43BB681A407B699A404FF0FF3152
:101DD4007B6901FA03F3D9437B680B40134318462C
:101DE4002437BD465DF8047B7047000080B582B09F
:101DF40000AF78607B68013BB3F1807F01D301239E
:101E04000FE00A4A7B68013B53600F214FF0FF301B
:101E1400FFF78EFF054B00229A60044B07221A60DD
:101E2400002318460837BD4680BD00BF10E000E01F
:101E340080B582B000AF78607868FFF729FF00BFF3
:101E44000837BD4680BD80B586B000AF0346B96093
:101E54007A60FB7300237B61FFF73EFF78617A6849
:101E6400B9687869FFF78EFF024697F90F3011467B
:101E74001846FFF75DFF00BF1837BD4680BD80B52B
:101E840082B000AF0346FB7197F907301846FFF79D
:101E940031FF00BF0837BD4680BD80B582B000AFBA
:101EA40078607868FFF7A2FF034618460837BD46F6
:101EB40080BD000080B489B000AF78603960002331
:101EC4007B6100233B610023BB610023FB6159E17B
:101ED4000122FB6902FA03F37B613B681B687A69A0
:101EE40013403B613A697B699A4240F048813B6800
:101EF4005B6803F00303012B05D03B685B6803F0C8
:101F04000303022B30D17B689B68BB61FB695B00D8
:101F1400032202FA03F3DB43BA691340BB613B6853
:101F2400DA68FB695B0002FA03F3BA691343BB6125
:101F34007B68BA699A607B685B68BB610122FB6954
:101F440002FA03F3DB43BA691340BB613B685B6885
:101F54001B0903F00102FB6902FA03F3BA69134394
:101F6400BB617B68BA695A603B685B6803F0030332
:101F7400032B17D07B68DB68BB61FB695B00032222
:101F840002FA03F3DB43BA691340BB613B689A6806
:101F9400FB695B0002FA03F3BA691343BB617B6814
:101FA400BA69DA603B685B6803F00303022B23D150
:101FB400FB69DA087B68083253F82230BB61FB699D
:101FC40003F007039B000F2202FA03F3DB43BA6911
:101FD4001340BB613B681A69FB6903F007039B006C
:101FE40002FA03F3BA691343BB61FB69DA087B683D
:101FF4000832B96943F822107B681B68BB61FB692E
:102004005B00032202FA03F3DB43BA691340BB61AA
:102014003B685B6803F00302FB695B0002FA03F3AD
:10202400BA691343BB617B68BA691A603B685B6831
:1020340003F08053002B00F0A2800023FB60574B79
:102044005B6C564A43F480435364544B5B6C03F417
:102054008043FB60FB68524AFB699B08023352F8D9
:102064002330BB61FB6903F003039B000F2202FAD8
:1020740003F3DB43BA691340BB617B68494A93426B
:1020840019D07B68484A934213D07B68474A9342ED
:102094000DD07B68464A934207D07B68454A9342F9
:1020A40001D1042308E0072306E0032304E002230C
:1020B40002E0012300E00023FA6902F00302920027
:1020C4009340BA691343BB613549FB699B080233EA
:1020D400BA6941F82320384B1B68BB613B69DB4379
:1020E400BA691340BB613B685B6803F48033002B1F
:1020F40003D0BA693B691343BB612F4ABB691360C0
:102104002D4B5B68BB613B69DB43BA691340BB6120
:102114003B685B6803F40033002B03D0BA693B6966
:102124001343BB61244ABB695360234B9B68BB6167
:102134003B69DB43BA691340BB613B685B6803F4EA
:102144008013002B03D0BA693B691343BB611A4A5D
:10215400BB699360184BDB68BB613B69DB43BA69BD
:102164001340BB613B685B6803F40013002B03D08E
:10217400BA693B691343BB610F4ABB69D360FB690E
:102184000133FB61FB690F2B7FF6A2AE00BF00BFDA
:102194002437BD465DF8047B704700BF0038024019
:1021A40000380140000002400004024000080240E0
:1021B400000C024000100240003C014080B483B097
:1021C40000AF78600B467B8013467B707B78002BD6
:1021D40003D07A887B689A6103E07B881A047B6861
:1021E4009A6100BF0C37BD465DF8047B704780B42C
:1021F40085B000AF78600B467B807B685B69FB60D1
:102204007A88FB6813401A04FB68D9437B880B4027
:102214001A437B689A6100BF1437BD465DF8047B9E
:102224007047000080B582B000AF0346FB80084BC6
:102234005A69FB881340002B06D0054AFB8853617A
:10224400FB881846FEF706FD00BF0837BD4680BD73
:10225400003C014080B586B000AF78607B68002BFD
:1022640001D1012364E27B681B6803F00103002BA6
:1022740075D0A34B9B6803F00C03042B0CD0A04B2C
:102284009B6803F00C03082B12D19D4B5B6803F48D
:102294008003B3F5800F0BD1994B1B6803F4003313
:1022A400002B5BD07B685B68002B57D101233FE296
:1022B4007B685B68B3F5803F06D1914B1B68904AFD
:1022C40043F4803313601DE07B685B68B3F5A02F93
:1022D4000CD18B4B1B688A4A43F480231360884BD0
:1022E4001B68874A43F4803313600BE0844B1B68FC
:1022F400834A23F480331360814B1B68804A23F4A0
:10230400802313607B685B68002B13D0FFF790FC7D
:10231400386108E0FFF78CFC02463B69D31A642B52
:1023240001D9032304E2764B1B6803F40033002B2A
:10233400F0D014E0FFF77CFC386108E0FFF778FC8C
:1023440002463B69D31A642B01D90323F0E16C4B99
:102354001B6803F40033002BF0D100E000BF7B685E
:102364001B6803F00203002B63D0654B9B6803F0EA
:102374000C03002B0BD0624B9B6803F00C03082B5F
:102384001CD15F4B5B6803F48003002B16D15C4BBC
:102394001B6803F00203002B05D07B68DB68012B6C
:1023A40001D00123C4E1564B1B6823F0F8027B687B
:1023B4001B69DB00524913430B603AE07B68DB681E
:1023C400002B20D04F4B01221A60FFF731FC3861FB
:1023D40008E0FFF72DFC02463B69D31A022B01D912
:1023E4000323A5E1464B1B6803F00203002BF0D046
:1023F400434B1B6823F0F8027B681B69DB004049F0
:1024040013430B6015E03F4B00221A60FFF710FCEA
:10241400386108E0FFF70CFC02463B69D31A022B33
:1024240001D9032384E1364B1B6803F00203002B1C
:10243400F0D17B681B6803F00803002B30D07B6865
:102444005B69002B16D0304B01221A60FFF7F0FBBA
:10245400386108E0FFF7ECFB02463B69D31A022B14
:1024640001D9032364E1264B5B6F03F00203002BC5
:10247400F0D015E0244B00221A60FFF7D9FB386135
:1024840008E0FFF7D5FB02463B69D31A022B01D9BA
:1024940003234DE11A4B5B6F03F00203002BF0D1D1
:1024A4007B681B6803F00403002B00F0A08000236A
:1024B400FB75134B1B6C03F08053002B0FD10023CF
:1024C400BB600F4B1B6C0E4A43F0805313640C4BE0
:1024D4001B6C03F08053BB60BB680123FB750B4B83
:1024E4001B6803F48073002B21D1084B1B68074A37
:1024F40043F480731360FFF79BFB386111E000BF66
:102504000038024000004742800E474200700040FD
:10251400FFF78EFB02463B69D31A022B01D9032332
:1025240006E1854B1B6803F48073002BF0D07B68B5
:102534009B68012B06D1814B1B6F804A43F001033A
:1025440013671CE07B689B68052B0CD17B4B1B6FCE
:102554007A4A43F004031367784B1B6F774A43F0BE
:10256400010313670BE0754B1B6F744A23F00103DF
:102574001367724B1B6F714A23F0040313677B6864
:102584009B68002B15D0FFF753FB38610AE0FFF777
:102594004FFB02463B69D31A41F28832934201D978
:1025A4000323C5E0654B1B6F03F00203002BEED041
:1025B40014E0FFF73DFB38610AE0FFF739FB024600
:1025C4003B69D31A41F28832934201D90323AFE025
:1025D4005A4B1B6F03F00203002BEED1FB7D012B42
:1025E40005D1564B1B6C554A23F0805313647B680A
:1025F4009B69002B00F09B80504B9B6803F00C03FD
:10260400082B5CD07B689B69022B41D14C4B002288
:102614001A60FFF70DFB386108E0FFF709FB02467B
:102624003B69D31A022B01D9032381E0434B1B6876
:1026340003F00073002BF0D17B68DA697B681B6AB6
:102644001A437B685B6A9B011A437B689B6A5B083D
:10265400013B1B041A437B68DB6A1B06374913439F
:102664004B60374B01221A60FFF7E2FA386108E049
:10267400FFF7DEFA02463B69D31A022B01D9032382
:1026840056E02E4B1B6803F00073002BF0D04EE095
:102694002B4B00221A60FFF7CBFA386108E0FFF7F2
:1026A400C7FA02463B69D31A022B01D903233FE040
:1026B400224B1B6803F00073002BF0D137E07B68DA
:1026C4009B69012B01D1012332E01C4B5B68FB6049
:1026D4007B689B69012B28D0FB6803F480027B682C
:1026E400DB699A4221D1FB6803F03F027B681B6AD5
:1026F4009A421AD1FA6847F6C07313407A68526A4C
:102704009201934211D1FB6803F440327B689B6AC7
:102714005B08013B1B049A4207D1FB6803F070621B
:102724007B68DB6A1B069A4201D0012300E0002388
:1027340018461837BD4680BD00700040003802407E
:102744006000474280B584B000AF786039607B6830
:10275400002B01D10123CCE0684B1B6803F0070375
:102764003A689A420CD9654B3A68D2B21A70634BF4
:102774001B6803F007033A689A4201D00123B8E0CA
:102784007B681B6803F00203002B20D07B681B6866
:1027940003F00403002B05D0594B9B68584A43F4BB
:1027A400E05393607B681B6803F00803002B05D09B
:1027B400534B9B68524A43F460439360504B9B686D
:1027C40023F0F0027B689B684D4913438B607B6860
:1027D4001B6803F00103002B44D07B685B68012B6A
:1027E40007D1474B1B6803F40033002B19D1012395
:1027F4007FE07B685B68022B03D07B685B68032BFC
:1028040007D13F4B1B6803F00073002B09D1012350
:102814006FE03B4B1B6803F00203002B01D1012343
:1028240067E0374B9B6823F003027B685B6834499D
:1028340013438B60FFF7FCF9F8600AE0FFF7F8F93F
:102844000246FB68D31A41F28832934201D903232A
:102854004FE02B4B9B6803F00C027B685B689B008A
:102864009A42EBD1254B1B6803F007033A689A425E
:102874000CD2224B3A68D2B21A70204B1B6803F078
:1028840007033A689A4201D0012332E07B681B684F
:1028940003F00403002B08D0194B9B6823F4E05287
:1028A4007B68DB68164913438B607B681B6803F005
:1028B4000803002B09D0124B9B6823F460427B6809
:1028C4001B69DB000E4913438B6000F021F80246BC
:1028D4000B4B9B681B0903F00F030A49CB5C22FADC
:1028E40003F3094A1360094B1B681846FFF75CF9A8
:1028F400002318461037BD4680BD00BF003C02408F
:1029040000380240A8420008000100200401002011
:102914002DE9B04384B000AF00237B600023FB604B
:1029240000233B600023BB60674B9B6803F00C03F0
:10293400082B0DD0082B00F2BD80002B02D0042BF5
:1029440003D0B7E0614BBB60B7E0614BBB60B4E060
:102954005D4B5B6803F03F037B605B4B5B6803F498
:102964008003002B4DD0584B5B689B091A464FF0EF
:10297400000340F2FF104FF0000102EA000803EAEE
:102984000109404649464FF000024FF000034B0155
:1029940043EAD063420110461946B0EB080061EBEC
:1029A40009014FF000024FF000038B0143EA9063EA
:1029B4008201121A63EB01034FF000004FF0000193
:1029C400D90041EA5271D00002460B4612EB0802CC
:1029D40043EB09034FF000004FF00001590241EAB4
:1029E400D251500202460B46104619467B681A46DD
:1029F4004FF00003FDF7ECFB02460B461346FB6069
:102A04004AE0314B5B689B091A464FF0000340F2E1
:102A1400FF104FF0000102EA000403EA010520461A
:102A240029464FF000024FF000034B0143EAD06304
:102A3400420110461946001B61EB05014FF00002EC
:102A44004FF000038B0143EA90638201121A63EB97
:102A540001034FF000004FF00001D90041EA527128
:102A6400D00002460B46121945EB03034FF0000059
:102A74004FF00001990241EA9251900202460B463E
:102A8400104619467B681A464FF00003FDF7A0FB79
:102A940002460B461346FB600B4B5B681B0C03F0B2
:102AA400030301335B003B60FA683B68B2FBF3F35A
:102AB400BB6002E0054BBB6000BFBB681846103723
:102AC400BD46BDE8B08300BF003802400024F400D6
:102AD40000127A0080B400AF034B1B681846BD4651
:102AE4005DF8047B704700BF0001002080B500AF93
:102AF400FFF7F0FF0246054B9B689B0A03F00703B0
:102B04000349CB5C22FA03F3184680BD0038024027
:102B1400B842000880B500AFFFF7DCFF0246054B62
:102B24009B685B0B03F007030349CB5C22FA03F3B6
:102B3400184680BD00380240B842000880B485B011
:102B440000AF78607B6893F83D30DBB2012B01D095
:102B540001233CE07B68022283F83D207B681B68EC
:102B64001E4A934218D07B681B68B3F1804F13D080
:102B74007B681B681A4A93420ED07B681B68194A0B
:102B8400934209D07B681B68174A934204D07B6840
:102B94001B68164A934211D17B681B689B6803F03B
:102BA4000703FB60FB68062B10D07B681B681A6860
:102BB4007B681B6842F001021A6007E07B681B68AF
:102BC4001A687B681B6842F001021A6000231846E9
:102BD4001437BD465DF8047B704700BF0000014018
:102BE4000004004000080040000C00400040014088
:102BF40080B485B000AF78607B6893F83D30DBB279
:102C0400012B01D0012344E07B68022283F83D209C
:102C14007B681B68DA687B681B6842F00102DA6033
:102C24007B681B681E4A934218D07B681B68B3F10B
:102C3400804F13D07B681B681A4A93420ED07B687E
:102C44001B68194A934209D07B681B68174A934250
:102C540004D07B681B68164A934211D17B681B68B9
:102C64009B6803F00703FB60FB68062B10D07B68AE
:102C74001B681A687B681B6842F001021A6007E04F
:102C84007B681B681A687B681B6842F001021A6043
:102C9400002318461437BD465DF8047B704700BF17
:102CA400000001400004004000080040000C004007
:102CB4000040014080B584B000AF786039603B6863
:102CC400002B09D17B6893F83E30DBB2012B14BF93
:102CD40001230023DBB222E03B68042B09D17B688B
:102CE40093F83F30DBB2012B14BF01230023DBB286
:102CF40015E03B68082B09D17B6893F84030DBB2C0
:102D0400012B14BF01230023DBB208E07B6893F896
:102D14004130DBB2012B14BF01230023DBB2002BB3
:102D240001D00123AEE03B68002B04D17B68022272
:102D340083F83E2013E03B68042B04D17B68022215
:102D440083F83F200BE03B68082B04D17B68022208
:102D540083F8402003E07B68022283F841203B682B
:102D64000C2B41D801A252F823F000BFA52D000876
:102D7400ED2D0008ED2D0008ED2D0008B72D0008FD
:102D8400ED2D0008ED2D0008ED2D0008C92D0008DB
:102D9400ED2D0008ED2D0008ED2D0008DB2D0008B9
:102DA4007B681B68DA687B681B6842F00202DA60A1
:102DB4001BE07B681B68DA687B681B6842F00402CE
:102DC400DA6012E07B681B68DA687B681B6842F093
:102DD4000802DA6009E07B681B68DA687B681B68B4
:102DE40042F01002DA6000E000BF7B681B68012239
:102DF4003968184600F058FD7B681B68234A9342E3
:102E040007D17B681B685A6C7B681B6842F40042DC
:102E14005A647B681B681D4A934218D07B681B6800
:102E2400B3F1804F13D07B681B68194A93420ED0CC
:102E34007B681B68174A934209D07B681B68164A53
:102E4400934204D07B681B68144A934211D17B6877
:102E54001B689B6803F00703FB60FB68062B10D01C
:102E64007B681B681A687B681B6842F001021A6061
:102E740007E07B681B681A687B681B6842F00102E4
:102E84001A60002318461037BD4680BD000001407B
:102E94000004004000080040000C004000400140D5
:102EA40080B582B000AF78607B68002B01D101232C
:102EB40041E07B6893F83D30DBB2002B06D17B68A0
:102EC400002283F83C207868FEF74EFC7B680222DF
:102ED40083F83D207B681A687B68043319461046E2
:102EE40000F0D6FA7B68012283F846207B68012231
:102EF40083F83E207B68012283F83F207B6801220F
:102F040083F840207B68012283F841207B680122FA
:102F140083F842207B68012283F843207B680122E6
:102F240083F844207B68012283F845207B680122D2
:102F340083F83D20002318460837BD4680BD0000B5
:102F440080B584B000AF786039603B68002B09D14C
:102F54007B6893F83E30DBB2012B14BF01230023BE
:102F6400DBB222E03B68042B09D17B6893F83F3045
:102F7400DBB2012B14BF01230023DBB215E03B6855
:102F8400082B09D17B6893F84030DBB2012B14BFC6
:102F940001230023DBB208E07B6893F84130DBB205
:102FA400012B14BF01230023DBB2002B01D001232A
:102FB40068E03B68002B04D17B68022283F83E2042
:102FC40013E03B68042B04D17B68022283F83F2082
:102FD4000BE03B68082B04D17B68022283F8402075
:102FE40003E07B68022283F841207B681B6801228E
:102FF4003968184600F058FC7B681B68234A9342E2
:1030040007D17B681B685A6C7B681B6842F40042DA
:103014005A647B681B681D4A934218D07B681B68FE
:10302400B3F1804F13D07B681B68194A93420ED0CA
:103034007B681B68174A934209D07B681B68164A51
:10304400934204D07B681B68144A934211D17B6875
:103054001B689B6803F00703FB60FB68062B10D01A
:103064007B681B681A687B681B6842F001021A605F
:1030740007E07B681B681A687B681B6842F00102E2
:103084001A60002318461037BD4680BD0000014079
:103094000004004000080040000C004000400140D3
:1030A40080B582B000AF78607B681B681B6903F051
:1030B4000203022B22D17B681B68DB6803F0020346
:1030C400022B1BD17B681B686FF002021A617B68BC
:1030D40001221A777B681B689B6903F00303002BAA
:1030E40003D0786800F0B6F905E0786800F0A8F934
:1030F400786800F0B9F97B6800221A777B681B684E
:103104001B6903F00403042B22D17B681B68DB6872
:1031140003F00403042B1BD17B681B686FF00402CB
:103124001A617B6802221A777B681B689B6903F427
:103134004073002B03D0786800F08CF905E07868C0
:1031440000F07EF9786800F08FF97B6800221A7726
:103154007B681B681B6903F00803082B22D17B687A
:103164001B68DB6803F00803082B1BD17B681B6812
:103174006FF008021A617B6804221A777B681B6867
:10318400DB6903F00303002B03D0786800F062F9D5
:1031940005E0786800F054F9786800F065F97B6818
:1031A40000221A777B681B681B6903F01003102B3D
:1031B40022D17B681B68DB6803F01003102B1BD142
:1031C4007B681B686FF010021A617B6808221A770B
:1031D4007B681B68DB6903F44073002B03D07868B9
:1031E40000F038F905E0786800F02AF9786800F012
:1031F4003BF97B6800221A777B681B681B6903F024
:103204000103012B0ED17B681B68DB6803F001030B
:10321400012B07D17B681B686FF001021A61786883
:1032240000F004F97B681B681B6903F08003802BA2
:103234000ED17B681B68DB6803F08003802B07D109
:103244007B681B686FF080021A61786800F01CFCD0
:103254007B681B681B6903F04003402B0ED17B681D
:103264001B68DB6803F04003402B07D17B681B68B5
:103274006FF040021A61786800F000F97B681B68FF
:103284001B6903F02003202B0ED17B681B68DB68CD
:1032940003F02003202B07D17B681B686FF020020A
:1032A4001A61786800F0E6FB00BF0837BD4680BDB0
:1032B40080B584B000AFF860B9607A60FB6893F8B9
:1032C4003C30012B01D10223ACE0FB68012283F8DE
:1032D4003C207B680C2B00F29F8001A252F823F063
:1032E400193300081D3400081D3400081D3400087B
:1032F400593300081D3400081D3400081D3400082B
:103304009B3300081D3400081D3400081D340008D8
:10331400DB330008FB681B68B968184600F038F90D
:10332400FB681B689A69FB681B6842F008029A6193
:10333400FB681B689A69FB681B6822F004029A61A7
:10334400FB681B689969BB681A69FB681B680A43B8
:103354009A6162E0FB681B68B968184600F07EF960
:10336400FB681B689A69FB681B6842F400629A61F7
:10337400FB681B689A69FB681B6822F480629A6187
:10338400FB681B689969BB681B691A02FB681B68A8
:103394000A439A6141E0FB681B68B968184600F06B
:1033A400C9F9FB681B68DA69FB681B6842F008020C
:1033B400DA61FB681B68DA69FB681B6822F00402A7
:1033C400DA61FB681B68D969BB681A69FB681B680A
:1033D4000A43DA6121E0FB681B68B968184600F00B
:1033E40013FAFB681B68DA69FB681B6842F4006225
:1033F400DA61FB681B68DA69FB681B6822F4806287
:10340400DA61FB681B68D969BB681B691A02FB682F
:103414001B680A43DA6100E000BFFB68002283F8FE
:103424003C20002318461037BD4680BD80B483B0CD
:1034340000AF786000BF0C37BD465DF8047B704771
:1034440080B483B000AF786000BF0C37BD465DF830
:10345400047B704780B483B000AF786000BF0C3742
:10346400BD465DF8047B704780B483B000AF7860DC
:1034740000BF0C37BD465DF8047B704780B483B051
:1034840000AF786000BF0C37BD465DF8047B704721
:1034940080B485B000AF786039607B681B68FB60DE
:1034A4007B68344A93420FD07B68B3F1804F0BD0D2
:1034B4007B68314A934207D07B68304A934203D0F9
:1034C4007B682F4A934208D1FB6823F07003FB60AA
:1034D4003B685B68FA681343FB607B68254A934248
:1034E4001BD07B68B3F1804F17D07B68224A93428C
:1034F40013D07B68214A93420FD07B68204A9342C1
:103504000BD07B681F4A934207D07B681E4A9342C4
:1035140003D07B681D4A934208D1FB6823F44073AF
:10352400FB603B68DB68FA681343FB60FB6823F0CD
:1035340080023B685B691343FB607B68FA681A602E
:103544003B689A687B68DA623B681A687B689A62AF
:103554007B68084A934203D13B681A697B681A6303
:103564007B6801225A6100BF1437BD465DF8047BB5
:10357400704700BF00000140000400400008004004
:10358400000C00400040014000440140004801405C
:1035940080B487B000AF786039607B681B6A23F021
:1035A40001027B681A627B681B6A7B617B685B68CB
:1035B4003B617B689B69FB60FB6823F07003FB60E5
:1035C400FB6823F00303FB603B681B68FA68134342
:1035D400FB607B6923F002037B613B689B687A692B
:1035E40013437B617B681C4A93420CD17B6923F0B3
:1035F40008037B613B68DB687A6913437B617B6901
:1036040023F004037B617B68134A934211D13B6925
:1036140023F480733B613B6923F400733B613B6893
:103624005B693A6913433B613B689B693A6913439D
:103634003B617B683A695A607B68FA689A613B68C7
:103644005A687B685A637B687A691A6200BF1C37C0
:10365400BD465DF8047B70470000014080B487B02C
:1036640000AF786039607B681B6A23F010027B68C6
:103674001A627B681B6A7B617B685B683B617B6861
:103684009B69FB60FB6823F4E043FB60FB6823F465
:103694004073FB603B681B681B02FA681343FB60C2
:1036A4007B6923F020037B613B689B681B017A697B
:1036B40013437B617B681E4A93420DD17B6923F0DF
:1036C40080037B613B68DB681B017A6913437B6180
:1036D4007B6923F040037B617B68154A934213D1D5
:1036E4003B6923F480633B613B6923F400633B61E2
:1036F4003B685B699B003A6913433B613B689B6988
:103704009B003A6913433B617B683A695A607B6862
:10371400FA689A613B685A687B689A637B687A693D
:103724001A6200BF1C37BD465DF8047B704700BFBA
:103734000000014080B487B000AF786039607B68D6
:103744001B6A23F480727B681A627B681B6A7B6144
:103754007B685B683B617B68DB69FB60FB6823F02B
:103764007003FB60FB6823F00303FB603B681B688A
:10377400FA681343FB607B6923F400737B613B6845
:103784009B681B027A6913437B617B681D4A9342E1
:103794000DD17B6923F400637B613B68DB681B020A
:1037A4007A6913437B617B6923F480637B617B6863
:1037B400144A934213D13B6923F480533B613B6920
:1037C40023F400533B613B685B691B013A69134373
:1037D4003B613B689B691B013A6913433B617B680E
:1037E4003A695A607B68FA68DA613B685A687B68B0
:1037F400DA637B687A691A6200BF1C37BD465DF8DC
:10380400047B70470000014080B487B000AF78604B
:1038140039607B681B6A23F480527B681A627B6878
:103824001B6A3B617B685B687B617B68DB69FB606F
:10383400FB6823F4E043FB60FB6823F44073FB6004
:103844003B681B681B02FA681343FB603B6923F463
:1038540000533B613B689B681B033A6913433B611C
:103864007B68104A934209D17B6923F480437B61CE
:103874003B685B699B017A6913437B617B687A6966
:103884005A607B68FA68DA613B685A687B681A6434
:103894007B683A691A6200BF1C37BD465DF8047B39
:1038A400704700BF0000014080B487B000AFF860EB
:1038B400B9607A60BB6803F01F03012202FA03F3C4
:1038C4007B61FB681A6A7B69DB431A40FB681A62F6
:1038D400FB681A6ABB6803F01F03796801FA03F3F3
:1038E4001A43FB681A6200BF1C37BD465DF8047BAF
:1038F4007047000080B485B000AF786039607B68A1
:1039040093F83C30012B01D1022350E07B68012263
:1039140083F83C207B68022283F83D207B681B6887
:103924005B68FB607B681B689B68BB60FB6823F07B
:103934007003FB603B681B68FA681343FB607B6899
:103944001B68FA685A607B681B681C4A934218D04B
:103954007B681B68B3F1804F13D07B681B68184ADF
:1039640093420ED07B681B68164A934209D07B6849
:103974001B68154A934204D07B681B68134A934220
:103984000CD1BB6823F08003BB603B685B68BA68FA
:103994001343BB607B681B68BA689A607B6801222A
:1039A40083F83D207B68002283F83C2000231846DE
:1039B4001437BD465DF8047B704700BF000001402A
:1039C4000004004000080040000C0040004001409A
:1039D40080B485B000AF786039600023FB607B68F9
:1039E40093F83C30012B01D102233DE07B68012296
:1039F40083F83C20FB6823F0FF023B68DB68134339
:103A0400FB60FB6823F440723B689B681343FB60D4
:103A1400FB6823F480623B685B681343FB60FB68CC
:103A240023F400623B681B681343FB60FB6823F4C8
:103A340080523B681B691343FB60FB6823F400520C
:103A44003B685B691343FB60FB6823F480423B687B
:103A5400DB691343FB607B681B68FA685A647B6804
:103A6400002283F83C20002318461437BD465DF835
:103A7400047B704780B483B000AF786000BF0C371C
:103A8400BD465DF8047B704780B483B000AF7860B6
:103A940000BF0C37BD465DF8047B704780B582B02B
:103AA40000AF78607B68002B01D101233FE07B6885
:103AB40093F83D30DBB2002B06D17B68002283F8FB
:103AC4003C207868FDF72AFF7B68242283F83D2098
:103AD4007B681B68DA687B681B6822F40052DA6032
:103AE400786800F005F97B681B681A697B681B68B5
:103AF40022F490421A617B681B685A697B681B68D0
:103B040022F02A025A617B681B68DA687B681B68AA
:103B140042F40052DA607B6800221A647B68202237
:103B240083F83D207B68202283F83E20002318463A
:103B34000837BD4680BD80B58AB002AFF860B96071
:103B44003B601346FB8000237B61FB6893F83D30A8
:103B5400DBB2202B7CD1BB68002B02D0FB88002B6E
:103B640001D1012375E0FB6893F83C30012B01D1AE
:103B740002236EE0FB68012283F83C20FB680022EC
:103B84001A64FB68212283F83D20FEF751F878611E
:103B9400FB68FA889A84FB68FA88DA84FB689B6875
:103BA400B3F5805F08D1FB681B69002B04D10023A7
:103BB400FB61BB68BB6103E0BB68FB610023BB61C5
:103BC400FB68002283F83C202AE03B6800937B6971
:103BD40000228021F86800F040F80346002B01D051
:103BE400032336E0FB69002B0BD1BB691B881A4603
:103BF400FB681B68C2F308025A60BB690233BB61ED
:103C040007E0FB691A78FB681B685A60FB6901339B
:103C1400FB61FB68DB8C9BB2013B9AB2FB68DA84E4
:103C2400FB68DB8C9BB2002BCFD13B6800937B6994
:103C340000224021F86800F010F80346002B01D060
:103C4400032306E0FB68202283F83D20002300E0E4
:103C5400022318462037BD4680BD80B584B000AF2E
:103C6400F860B9603B601346FB712CE0BB69B3F1AB
:103C7400FF3F28D0BB69002B07D0FDF7D9FF0246D0
:103C84003B68D31ABA699A421DD2FB681B68DA688A
:103C9400FB681B6822F4D072DA60FB681B685A69FF
:103CA400FB681B6822F001025A61FB68202283F83A
:103CB4003D20FB68202283F83E20FB68002283F825
:103CC4003C2003230FE0FB681B681A68BB681340A1
:103CD400BA689A420CBF01230023DBB21A46FB796F
:103CE4009A42C3D0002318461037BD4680BD000059
:103CF4002DE9F04F9FB000AFF866FB6E1B681B699F
:103D040023F44050FB6ED968FB6E1A6840EA010345
:103D14001361FB6E9A68FB6E1B691A43FB6E5B6949
:103D24001A43FB6EDB6913433B67FB6E1B68DB685E
:103D340023F4164121F00C01FB6E1A683B6F0B4310
:103D4400D360FB6E1B685B6923F44070FB6E99695A
:103D5400FB6E1A6840EA01035361FB6E1A68C54B97
:103D64009A4204D0FB6E1A68C34B9A4203D1FEF701
:103D7400D1FE786702E0FEF7B9FE7867FB6EDB6977
:103D8400B3F5004F40F0B6807B6F1C464FF0000542
:103D940022462B46911839645B417B64D7E9102392
:103DA400121945EB03034FF000004FF00001D90056
:103DB40041EA5271D00002460B46111939666B4133
:103DC4007B66FB6E5B681A464FF000039118B9637B
:103DD4005B41FB63D7E90E23D7E91801FCF7F8F937
:103DE40002460B46A54BA3FB02235B091E017B6F16
:103DF4001C464FF0000522462B46911839635B415F
:103E04007B63D7E90C23121945EB03034FF0000041
:103E14004FF00001D90041EA5271D00002460B462E
:103E24001119B9656B41FB65FB6E5B681A464FF06F
:103E340000039118B9625B41FB62D7E90A23D7E911
:103E44001601FCF7C5F902460B468C4BA3FB021383
:103E54005B09642101FB03F3D31ADB003233874A85
:103E6400A2FB03235B095B0003F4F8731E447B6F1E
:103E740018464FF0000102460B4694183C625B4121
:103E84007B62D7E90823121841EB03034FF00004C7
:103E94004FF00005DD0045EA5275D40022462B465A
:103EA40014183C654B417B65FB6E5B681A464FF00A
:103EB40000039118B9615B41FB61D7E90623D7E997
:103EC4001401FCF785F902460B466C4BA3FB021365
:103ED4005B09642101FB03F3D31ADB003233674A25
:103EE400A2FB03235B0903F00702FB6E1B68324449
:103EF4009A60B9E07B6F1C464FF0000522462B46C2
:103F0400911839615B417B61D7E90423121945EBB0
:103F140003034FF000004FF00001D90041EA527151
:103F2400D00002460B4612EB040843EB0509FB6E76
:103F34005B6818464FF000014FF000024FF0000399
:103F44008B0043EA9073820040464946FCF740F9EF
:103F540002460B46494BA3FB02235B091E017B6F00
:103F640018464FF0000102460B469418BC605B41B2
:103F7400FB60D7E90223121841EB03034FF000045E
:103F84004FF00005DD0045EA5275D40022462B4669
:103F94001418BC644B41FB64FB6E5B6818464FF01D
:103FA40000014FF000024FF000038B0043EA9073CE
:103FB4008200D7E91201FCF70BF902460B462F4B9E
:103FC400A3FB02135B09642101FB03F3D31A1B0156
:103FD40032332A4AA2FB03235B0903F0F0031E4495
:103FE4007B6F18464FF0000102460B4694183C6064
:103FF4005B417B60D7E90023121841EB03034FF0C8
:1040040000044FF00005DD0045EA5275D400224655
:104014002B4612EB000A43EB010BFB6E5B68184660
:104024004FF000014FF000024FF000038B0043EA11
:104034009073820050465946FCF7CAF802460B4674
:104044000E4BA3FB02135B09642101FB03F3D31A98
:104054001B013233094AA2FB03235B0903F00F025D
:10406400FB6E1B6832449A6000BF7C37BD46BDE8D6
:10407400F08F00BF00100140001401401F85EB5178
:1040840070B50D4D0D4C641BA4100026A64209D139
:104094000B4D0C4C00F020F8641BA4100026A64223
:1040A40005D170BD55F8043B98470136EEE755F845
:1040B400043B98470136F2E7C8420008C8420008AA
:1040C400C8420008CC42000802440346934200D18F
:1040D400704703F8011BF9E7F8B500BFF8BC08BC4A
:1040E4009E467047F8B500BFF8BC08BC9E467047B2
:1040F4005072657373205363726F6C6C0000000020
:10410400546F2043686F6F73652061204D6F646541
:1041140000000000507265737320456E7465720070
:10412400416761696E20546F20426567696E0000C3
:10413400496E204C6F636B6564204D6F64650000AD
:10414400436C6F73696E6720446F6F7200000000E8
:104154004F70656E696E6720446F6F7200000000D7
:10416400496E205365747570204D6F6465000000BE
:104174005031205365742E20507265737300000013
:104184007363726F6C6C20746F207365742050328B
:10419400000000005032205365742E205072657365
:1041A400730000007363726F6C6C20746F2073650E
:1041B40074205033000000005033205365742E20C7
:1041C40050726573730000007363726F6C6C2074BB
:1041D4006F20736574205034000000005034205365
:1041E40065742E2050726573730000007363726FE0
:1041F4006C6C20746F2073657420503500000000CF
:10420400536574757020436F6D706C657465000040
:104214005072657373205374617274004552524F27
:10422400523A534554555000507265737320535499
:1042340041525400496E2052756E204D6F646500E2
:10424400457869743A50726573732053746172745B
:1042540000000000593A456E746572204E3A53745A
:10426400617274005365747570204D6F64652E20FF
:1042740050313A005365747570204D6F64652E207B
:1042840050323A005365747570204D6F64652E206A
:1042940050343A005365747570204D6F64652E2058
:1042A40050353A0000000000000000000102030441
:0C42B400060708090000000001020304D6
:0842C00044BFFF7F0100000074
:0442C800B901000830
:0442CC009501000850
:1042D000FEC08001010300004C6F636B20536574C6
:1042E000757052756E202000436C6F736520446FAB
:1042F0006F724F70656E20446F6F7220080000006F
:10430000020000000400000006000000140000008D
:10431000050000000A0000000F000000409C0000A3
:1043200068420000A8610000307500003866742003
:10433000593A456E74657232667420593A456E7406
:10434000657234667420593A456E746572366674C7
:1043500020593A456E746572323073656320593A5C
:10436000456E746572303573656320593A456E74D5
:104370006572313073656320593A456E74657231E8
:104380003573656320593A456E746572537065657F
:1043900064203420593A456E7465725370656564C3
:1043A000203120593A456E746572537065656420FA
:1043B0003220593A456E74657253706565642033D6
:1043C00020593A456E74657201000000010000003A
:0C43D0000024F4001000000001000000B8
:0400000508001B15BF
:00000001FF
